101Region    9999999999211209    0094101Region                 PayWallet                      
5220PayWallet                           1111111111PPDPaywalletC211209211209   1012345670000001
822000000000000000000000000000000000000000001111111111                         012345670000001
9000001000001000000000000000000000000000000000000000000                                       
